:020000040800F2
:10000000200700200101000817200008A71C000895
:1000100015200008650600089F2100080000000068
:100020000000000000000000000000001B2000088D
:100030006706000800000000192000081D200008C5
:100040001B0100081B0100081B0100081B01000820
:100050001B0100081B0100081B0100081B01000810
:100060001B0100081B0100081B0100081B01000800
:100070001B0100081B0100081B0100081B010008F0
:100080001B0100081B010008250500081B010008D2
:100090001B0100081B0100081B0100081B010008D0
:1000A0001B0100081B0100081B0100081B010008C0
:1000B000BD2000081B0100081B0100081B010008EF
:1000C0001B0100081B0100081B0100081B010008A0
:1000D0001B0100081B0100081B0100081B01000890
:1000E000690600081B0100081B010008DFF80CD09E
:1000F00000F006FA004800473523000820070020DA
:100100000648804706480047FEE7FEE7FEE7FEE7B1
:10011000FEE7FEE7FEE7FEE7FEE7FEE775200008E4
:10012000ED000008202A04DB203A21FA02F0002129
:10013000704721FA02F3D040C2F1200291400843F7
:1001400019467047D2B201E000F8012B491EFBD2DC
:1001500070470022F6E710B513460A4604461946D2
:10016000FFF7F0FF204610BD421C10F8011B0029CC
:10017000FBD1801A70472DE9FE4F804681EA0300CB
:10018000C00F0C46009021F0004123F00045B8EB71
:100190000200A94105D24046214690461C460B4626
:1001A000024623F00040104347D0270DC7F30A0052
:1001B000C3F30A510290401A019040286BDAC3F34E
:1001C000130040F4801B0098924620B10023D2EB2C
:1001D000030A63EB0B0B01985946C0F140025046ED
:1001E00000F00FF906460D4650465946019A00F0B8
:1001F00017F910EB08006141002487EA115284EAE4
:10020000E7731A4340D0009A62B3019A012A4FEA79
:10021000075215DC001B61EB02014FF0004202EABD
:100220000752CDE90042001C41F5801132462B46B1
:1002300000F017F903B0BDE8F08F40462146F9E71A
:10024000001B61EB0201001C41F5801300185B41AB
:100250002018A2F5001747EB030140EAD570B61944
:100260006D4111E06D084FEA360645EAC0754FEA68
:100270000752001B61EB0201001C41F58011490887
:100280004FEA30000019514132462B4603B0BDE819
:10029000F04F00F0D7B80098012240000023D0EBC7
:1002A000020263EBE073009821464FEAE074B8EB7A
:1002B000000061EB0401E9E783F000435BE781F0B4
:1002C000004158E72DE9F04D81EA030404F0004BAA
:1002D00021F0004514464FF0000A23F0004150EA97
:1002E000050220D054EA01021DD0C5F30A57024688
:1002F000C5F31303C1F31300C1F30A5640F480158C
:1003000043F48013A7EB0608101BD64608F2FD380D
:1003100073EB050002D308F1010801E092185B417C
:10032000B8F1000F03DA00200146BDE8F08D00208F
:100330004FF48011064684460EE0171B73EB050749
:1003400005D3121B63EB050306434CEA010C490875
:100350004FEA300092185B4150EA0107EDD152EAB2
:10036000030012D082EA040083EA0501084305D0A5
:10037000101BAB4106D20122002306E000224FF001
:10038000004302E06FF0010253101AEB06004CEB41
:10039000085110EB0A0041EB0B01BDE8F04D00F0F5
:1003A00051B80EB5C10F80EAE0700844CA070021B9
:1003B00040F233438DE80E000A460B4600F051F838
:1003C00003B000BD70B5C1F30A5201F0004500242E
:1003D000C1F3130140F2FF3341F480119A4201DA74
:1003E000002070BD40F233439A42A2F2334203DC54
:1003F0005242FFF797FE00E090402C43F1D040427C
:1004000070BD202A04DB203A00FA02F10020704778
:100410009140C2F1200320FA03F319439040704742
:10042000202A06DBCB17203A41FA02F043EAE073B8
:1004300006E041FA02F3D040C2F1200291400843A5
:100440001946704710B5141E73F1000408DA401CF9
:1004500041F1000192185B411A4301D120F00100E3
:1004600010BD2DE9F04D92469B4611B1B1FA81F2D3
:1004700002E0B0FA80F220329046FFF7C2FF044655
:100480000F4640EA0A0041EA0B0153465A46084328
:1004900013D0114653EA010019D0C8F1400250466A
:1004A000FFF740FE05460E46504659464246FFF7C6
:1004B000A8FF084305D0012004E020463946BDE8E6
:1004C000F08D0020054346EAE0762C4337430A9836
:1004D0006305E40AA0EB08000022FD0A44EA475441
:1004E0000A3002D500200146E9E7010510196941EB
:1004F000DDE9084500196941BDE8F04DA2E70000BB
:10050000064C074D06E0E06840F0010394E8070060
:1005100098471034AC42F6D3FFF7ECFD4841000891
:1005200068410008014800F027B90000440200209B
:1005300070B5044600688168C943C9071CD1816849
:1005400021F00101816000F07BFC05460FE000BF57
:1005500000F076FC401B022809D9A06A40F0100088
:10056000A062E06A40F00100E062012070BD2068F6
:100570008068C043C007EBD0002070BDF8B50026EE
:100580000446009600688168C943C90728D081687D
:1005900041F001018160134813490068B0FBF1F09C
:1005A00000E0401E00900028FBD100F049FC054609
:1005B00011E000BF00F044FC401B02280BD9A06AE8
:1005C00040F01000A062E06A40F00100E06284F8B0
:1005D00024600120F8BD20688068C043C007E9D1CD
:1005E0000020F8BD4000002040420F0010B519481F
:1005F00000F092FA6421174800F0F6F9154800F06F
:10060000B8F8154CE060134800F0E6FAE068A0F690
:100610007C00FFF7C6FE114A114BFFF753FEFFF7B0
:10062000D1FE0021E060012801DAE16003E06428E6
:1006300001DD6420E0602069401C2061E36862699C
:100640000A281A44626104D192FBF0F02161C4E9E6
:10065000051010BD44020020180000205C8FC2F578
:10066000285C1140FEE770474FF4006000F0ECBAE0
:1006700070470000F8B50024009490F82420254627
:10068000012A12D0012280F824204A681F23072A59
:100690000DD20668776B521E02EB820293409F4395
:1006A0000B6893401F43776319E00220F8BD06688A
:1006B0000D2A0AD2376BD21F02EB820293409F436E
:1006C0000B6893401F43376309E0F76A0D3A02EB6A
:1006D000820293409F430B6893401F43F7620A686E
:1006E000072306680A2A0AD3F7680A3A02EB42028D
:1006F00093409F438B6893401F43F76008E037693E
:1007000002EB420293409F438B6893401F43376143
:100710000A68102A01D0112A20D1124B02689A428D
:1007200017D193681B0219D4936843F400039360B4
:100730000968102912D10C490C4A0968B1FBF2F181
:1007400001EB8101490000E0491E00910029FBD125
:1007500004E0816A41F020018162012480F8245084
:100760002046F8BD002401404000002040420F0018
:1007700070470068C06C704710B504460068416857
:10078000890626D50168890723D5A16AC90603D43D
:10079000A16A41F40071A1628168C1F34241072955
:1007A00010D1217B71B9416821F020014160A06A1C
:1007B00020F48070A062A06AC00403D4A06A40F054
:1007C0000100A0622046FFF7D3FF21686FF01200FE
:1007D00008602068416809062ED5016849072BD5B5
:1007E000A16AC90603D4A16A41F40051A1628168DB
:1007F000C1F30231072909D04168490515D4816840
:10080000C1F34241072910D1217B71B9416821F020
:1008100080014160A06A20F48050A062A06AC005F7
:1008200003D4A06A40F00100A0622046FFF720FF39
:1008300021686FF00C0008602068416849060DD5FA
:100840000068C0070AD0A06A40F48030A062204649
:1008500000F094F821686FF00100086010BD0000FE
:100860002DE9F0414FF0000704003D467ED0A06A1C
:10087000002628B9E66284F82460204600F080F85B
:100880002046FFF755FEA16AC90600D420B1A06A30
:1008900040F01000A06269E0A16A21F4885141F0A3
:1008A0000201A1626268E169237B0A4347EA4301CE
:1008B0000A43A1684FF48077B94209D0012907D0D3
:1008C0005FF0000194F814C0BCF1010F02D00AE0FF
:1008D0003946F7E7F3B1A36A43F02003A362E36A62
:1008E00043F00103E3622368D3F804C02CF4694C9D
:1008F0004CEA010CC3F804C021688B68DFF870C0B3
:1009000003EA0C0313438B60A168B9420BD00129A1
:1009100009D00CE0DFF85CC0A3690CEB43330B4358
:1009200043F40061DFE7218A0D05A5F580152168F4
:10093000CB6A23F470032B43CB62216889680E4B8A
:100940001940914208D1E662A16A21F0020141F00A
:100950000101A162BDE8F081A06A20F0020040F030
:100960001000A062E06A40F00100E0620120F1E7BF
:10097000FDF7E1FF00E0FFFFFE0E1FFF70470000E4
:1009800000B585B0002100910191029103910068AA
:100990001249884220D11248816941F40071816175
:1009A000816901F400710491816941F00401816160
:1009B0008069694600F00400049002200090032042
:1009C0000190084800F04CF900221146122000F076
:1009D0002DFC122000F01CFC05B000BD00240140DD
:1009E00000100240000801402DE9F84300260D46A2
:1009F0000446009600F024FA804620688168C90504
:100A000008D5A06A40F02000A06284F8246001208C
:100A1000BDE8F8834168C90503D4C06A10F4700FBB
:100A200026D0022000F034FC38490968B1FBF0F709
:100A30002068036936490B424FEA61014FEAA1126F
:100A40001BD1C3684FEA611C13EA0C0F15D103696F
:100A50000B4221D1C06810421ED114201FE0681C37
:100A600006D045B300F0ECF9A0EB0800A84222D86C
:100A7000206800688007F2D52AE003690B4202D1A2
:100A8000C168114206D0026922490A4206D1C068F3
:100A9000084203D1542002E0292000E0FC20474313
:100AA000009813E0681C0ED02DB100F0C9F9A0EB3E
:100AB0000800A84207D9A06A40F00400A06284F8A8
:100AC00024600320A4E70098401C0090B842E9D3BA
:100AD00021686FF012000860A06A40F40070A06204
:100AE00020688068C0F3424007280CD1207B50B9B1
:100AF000A06A20F48070A062A06AC00403D4A06A37
:100B000040F00100A062002082E7000040000020C9
:100B1000244992244992240070B5044690F8240098
:100B200001280DD0012084F824002046FFF726FD7F
:100B300002004FF0000005D084F82400104670BD7C
:100B4000022070BDA16A40F20123994341F48071F3
:100B5000A1621F4D23681F49AB4218D10E6816F4DD
:100B6000702F14D0A66A46F48016A6620E68760529
:100B700005D5A66A26F4005646F48056A662A66AF3
:100B8000F6040AD5E66A26F00606E66206E0A66ADC
:100B900026F48016A6625E68E9E7E06284F8240025
:100BA0006FF00200186020688368C3F34243072B8C
:100BB00005D1A84208D1096811F4702F04D08168CA
:100BC00041F480118160B9E7816841F4A001F9E73F
:100BD000002801400424014010B5044690F8240088
:100BE000012807D0012084F824002046FFF7A0FC4C
:100BF00010B107E0022010BDA16A21F4885141F034
:100C00000101A162002184F8241010BD70B50446D2
:100C100000F016F90546601C02D004480078044430
:100C200000F00EF9401BA042FAD370BD3400002042
:100C3000B0F5006F01D000BF704702484168491C01
:100C40004160704718000020044910B50A6802424C
:100C500002D00860FFF7ECFF10BD00001404014053
:100C60002DE9F84FDFF8B891002409F1040A0AF1E0
:100C7000040B23460F270BF1040EC9E00125A54004
:100C80002A40AA427DD1674ED1F804C0ACEB0608D9
:100C9000B44532D014DCBCF1030F3AD009DCBCF10E
:100CA000000F2AD0BCF1010F1CD0BCF1020F31D1D2
:100CB0001DE0BCF1110F17D0BCF1120F2AD119E0C1
:100CC000B8F5881F19D006DCB8F5803F15D0B8F507
:100CD000801F1FD111E0B8F5001F0ED0B8F5041F1A
:100CE00018D10AE0CB6815E0CB681B1D12E0CB6879
:100CF00008330FE0CB680C330CE08B682BB1012B71
:100D00004FF0080303D0456104E0042302E00561CD
:100D100000E00023FF2A01D8064601E000F10406A6
:100D20004FEA840501D9A5F12005D6F8008007FA1D
:100D300005FC28EA0C0803FA05F548EA0508C6F898
:100D400000804D68ED0062D5374DAE6946F0010672
:100D5000AE61AD6924F0030605F001050095334D41
:100D600006EB050CDCF80850A607360F07FA06F864
:100D700025EA0805DFF8B880404503D14FF00008A8
:100D800017E044E0DFF8AC80404502D14FF00108A5
:100D90000FE0DFF8A480404502D14FF0020808E0E0
:100DA000DFF89880404502D14FF0030801E04FF092
:100DB000040808FA06F848EA0508CCF808804D68E7
:100DC000D9F80060ED034D4601D5164300E0964387
:100DD0002E604D68DAF80060AD03554601D5164324
:100DE00000E096432E604D68DBF80060ED025D4642
:100DF00001D5164300E096432E604D68DEF8006092
:100E0000AD02754601D5164300E096432E60641C82
:100E10000D682A46E5407FF431AFBDE8F88F000049
:100E200000040140000011100010024000000140C9
:100E300000080140000C0140001001400014014076
:100E400001488068704700003400002070B504003D
:100E50001BD094F83D00002520B984F83C50204672
:100E600000F046F9242084F83D002068016821F054
:100E70000101016000F07CFB4D4A6168914201D89C
:100E80004C4900E04C49884201D2012070BD4B49D9
:100E90002368B0FBF1F15E6826F03F060E435E600A
:100EA0006368934206D94FF4967359434FF47A73AB
:100EB000B1FBF3F12368491C1E6A26F03F0631435B
:100EC00019626168914210D84900401EB0FBF1F2EE
:100ED000521CC2F30B02042A01D2042022E0B0FB10
:100EE000F1F0401CC0F30B001CE0A368F3B301EB6E
:100EF000C10202EB0116421EB2FBF6F2521C42F492
:100F00008042120549D093B301EBC10202EB0111FB
:100F1000401EB0FBF1F0401CC0F30B0040F48040D9
:100F200040F400402168CA694CF6FF739A431043AD
:100F3000C861D4E90701084321680A6822F0C002A9
:100F400010430860D4E9030101432068826848F235
:100F5000FF339A4311438160D4E9050108432168B6
:100F6000CA6822F0FF021043C86001E00EE016E0FC
:100F70002068016841F0010101602564202084F8A7
:100F80003D00256384F83E50002070BD01EB410612
:100F9000421EB2FBF6F2521CB3E70120C2E701EB9E
:100FA0004101401EB0FBF1F0401CC0F30B00B7E75D
:100FB000A086010080841E0000093D0040420F0011
:100FC0002DE9FF4F83B09A46DDE911979346044619
:100FD000DDF84080FFF734FF054694F83D002028F7
:100FE0007FD11923012240492046009500F0E4FEFC
:100FF000002876D194F83C00012872D0012084F8B2
:101000003C0020680168C90703D1016841F0010173
:1010100001602068016821F400610160212084F8EA
:101020003D00402084F83E0000262664C4F8248059
:10103000A4F82A90608D20852C48E062CDE90075E7
:1010400053465A462046049900F046FE70B930E0F7
:101050002A463946204600F02EFF58B1206C04285D
:1010600004D12068016841F400710160012007B0DB
:10107000BDE8F08F606A216800780861606A401CF2
:101080006062218D491E89B22185628D521E628562
:1010900022685369DB435B070BD469B100781061A8
:1010A000606A401C6062208D401E2085608D401E5D
:1010B0006085208D0028CBD12A463946204600F095
:1010C00055FE0028CAD154F83D0B016841F4007167
:1010D0000160202004F81E09E67766770020C6E745
:1010E000FFE70220C3E70000020010000000FFFF3E
:1010F00010B586B000210091019102910391006822
:101100001349884222D1134CA06940F00800A06125
:10111000A069694600F0080004904FF44070009008
:1011200012200190032003900B48FFF799FD0B4814
:10113000416841F0E06141F002014160E06940F442
:101140000010E061E06900F40010049006B010BDEA
:101150000054004000100240000C0140000001401B
:101160000248816802781144816070473400002091
:10117000074810B5016841F010010160032000F03C
:1011800075F8002000F006F800F024F8002010BDEB
:101190000020024070B50D4D04464FF47A71287856
:1011A000B1FBF0F00A490968B1FBF0F000F0C6FBB2
:1011B00048B9102C07D200222146501E00F036F804
:1011C00000206C6070BD012070BD00003400002064
:1011D000400000200C4808B5816941F0010181619F
:1011E000816901F001010091C16941F08051C16143
:1011F000C06900F0805000900448416821F0E0612F
:1012000041F00071416008BD001002400000014043
:10121000002809DB00F01F020121914040098000F5
:1012200000F1E020C0F8001170470000F0B40E4B50
:101230001B680C46C3F30223C3F10705042D00D934
:101240000425191D072901D2002300E0DB1E012619
:1012500006FA05F1491E214099409E40761E16402F
:101260003143F0BC00F09CBF0CED00E0064900F0FB
:10127000070208684FF6FF03184040EA0220034ABD
:1012800010430860704700000CED00E00000FA0514
:1012900010B529A401461DCC86B08DE81D002AA0FA
:1012A0002A4C006804900020012923D002293AD05A
:1012B00010291DD161682268D20119D5C1F383427A
:1012C000C9031DF8020009D5616804AAC1F34041B1
:1012D000515C1F4AB2FBF1F1484301E01D4948430C
:1012E0006168490204D440005FF00301B0FBF1F0F3
:1012F00006B010BD226AC2F30121012903D1920771
:1013000001D5C803F4E7022905D1626A920702D524
:1013100049F64040ECE70329EAD121688903E7D583
:101320004FF22440E4E700F033F96168C1F3813102
:10133000491C4900DAE70000020304050607080912
:101340000A0B0C0D0E0F10100102000000100240DD
:1013500000127A0000093D002DE9F84305460078A7
:10136000354CC00754D0E0690026C00008D4E069BD
:1013700040F08050E061E069012600F0805000906C
:101380002E480168C90512D40168804641F4807175
:101390000160FFF755FD074605E000BFFFF750FD70
:1013A000C01B642823D8D8F80000C005F6D5206AF1
:1013B00010F4407021D0A98801F4407181421CD002
:1013C000206A1F49012220F440700A6000220A604E
:1013D0002062C00711D0FFF733FD074641F288387D
:1013E00008E000BFFFF72CFDC11B414502D90320D7
:1013F000BDE8F883206A8007F4D5206A696820F484
:101400004070084320621EB1E06920F08050E06126
:101410002878800705D56068A96820F44040084313
:1014200060602878C00605D56068E96820F480000F
:10143000084360600020DBE70010024000700040BD
:10144000400442422DE9F0470F46050061D0434E6B
:10145000306800F00700B84209D2306820F0070079
:1014600038433060306800F00700B84251D1286836
:101470003B4C810712D5400703D5606840F4E0601B
:1014800060602878000703D5606840F460506060B1
:101490006068A96820F0F000084360602878C00701
:1014A00028D06868012810D02168022810D0890748
:1014B00000292EDA616821F0030101436160FFF722
:1014C000BFFC804641F288390DE021688903EFE7CF
:1014D0008901EDE7FFF7B4FCA0EB0801494502D90B
:1014E0000320BDE8F0876068696800F00C00B0EB8D
:1014F000810FEFD1306800F00700B8420BD9306897
:1015000020F0070038433060306800F00700B84230
:1015100001D00120E5E72878400705D56068E96833
:1015200020F4E060084360602878000706D5606812
:10153000296920F4605040EAC100606000F038F88A
:101540006168084AC1F30311515CC840064908604C
:1015500006480068FFF71EFE0020C2E70020024098
:1015600000100240304100084000002038000020F8
:101570000448054900684968044AC1F30221515CE6
:10158000C840704740000020001002404041000861
:101590000448054900684968044AC1F3C221515C06
:1015A000C840704740000020001002404041000841
:1015B00012A185B00FC98DE80F0014A0144A00686D
:1015C00004905168134801F00C03042B10D0082B31
:1015D0000ED1C1F38343C9031DF803000AD5516836
:1015E00004AAC1F34041515C0A4A5043B0FBF1F0F8
:1015F00005B0704708494843FAE7000002030405B4
:10160000060708090A0B0C0D0E0F1010010200004E
:101610000010024000127A0000093D002DE9F84F49
:10162000040070D02078C04DC00749D06868C0F36E
:101630008100012807D06868C0F38100022809D121
:101640006868C00306D52868800339D5606800281B
:10165000E7D035E06068B0F5803F0BD010B1B0F551
:10166000A02F11D0286820F480302860286820F44A
:10167000802002E0286840F480302860606890B1E3
:10168000FFF7DEFB06460AE0286840F48020286069
:10169000F0E700BFFFF7D4FB801B642873D82868ED
:1016A0008003F7D50CE0FFF7CBFB064605E000BF53
:1016B000FFF7C6FB801B6428F0D828688003F7D4A6
:1016C00020789A4E80074FF001094FF0000839D575
:1016D000686810F00C0F07D06868C0F3810002281A
:1016E00009D16868C00306D42868800714D520692A
:1016F000012808D110E02069B0B1C6F80090FFF7CA
:101700009FFB074605E00AE1FFF79AFBC01B022892
:10171000C4D828688007F7D52868616920F0F800E8
:1017200040EAC10028600DE0C6F80080FFF788FBA2
:10173000074604E0FFF784FBC01B022823D8286873
:101740008007F7D4207800072CD57948A169D9B152
:10175000C0F80090FFF774FB074604E0FFF770FB4A
:10176000C01B02280FD8686A8007F7D571484FF46C
:10177000FA510068B0FBF1F0009000BF0098411EE4
:101780000091FAD20EE080E0C0F80080FFF758FB2D
:10179000074604E0FFF754FBC01B022875D8686AAF
:1017A0008007F7D42078400760D5E8690027C0009B
:1017B00008D4E86940F08050E861E869012700F04A
:1017C000805000905C480168C90513D401688346C5
:1017D00041F480710160FFF733FB824606E000BFF1
:1017E000FFF72EFBA0EB0A0064284ED8DBF80000C0
:1017F000C005F5D5E06801280AD008B1052813D046
:10180000286A20F001002862286A20F0040002E023
:10181000286A40F001002862E06841F2883B98B1F4
:10182000FFF70EFB82460BE0286A40F004002862B6
:10183000EEE700BFFFF704FBA0EB0A0159455AD8B9
:10184000286A8007F6D50CE0FFF7FAFA824605E031
:10185000FFF7F6FAA0EB0A0159454CD8286A800731
:10186000F6D41FB1E86920F08050E861E06988B3E0
:101870006968C1F38101022944D00228C6F860805A
:1018800004D0FFF7DDFA044638E034E0FFF7D8FA79
:10189000074604E0FFF7D4FAC01B02282BD82868BB
:1018A0008001F7D4206AB0F5803F05D16868A1684F
:1018B00020F4003008436860D4E9080108436968EF
:1018C00021F4741108436860C6F86090FFF7B8FA15
:1018D000044606E025E000BFFFF7B2FA001B02282D
:1018E00009D828688001F7D51BE000BFFFF7A8FAE8
:1018F000001B022802D90320BDE8F88F2868800168
:10190000F4D40EE00128F7D06868226A00F4803130
:10191000914204D1616A00F47010884201D0012024
:10192000EAE70020E8E70000001002400000424221
:1019300080044242400000200070004010B5401E6C
:10194000B0F1807F01D3012010BD4FF0E024606131
:101950000F21601700F024FC0020A0610720206107
:10196000002010BD7047704770B590F83C20012AE8
:1019700019D0012400F83C4F0222427050F83C3C40
:101980005A689D6822F070060A684968324325F05B
:10199000800529435A6050F83C2C91604470002126
:1019A0000170084670BD022070BD10B5040003D060
:1019B00094F83D0010B107E0012010BD002084F82C
:1019C0003C00204600F00CF8022084F83D00211D68
:1019D000206800F079FB012084F83D00002010BD54
:1019E00008B50068B0F1804F12D10A48C16941F0D2
:1019F0000101C161C069002200F0010000901146A0
:101A00001C20FFF713FCBDE808401C20FFF700BCBA
:101A100008BD0000001002400168CA6842F00102DF
:101A2000CA600068816801F00701062903D00168D7
:101A300041F0010101600020704770B5044690F844
:101A40003C00012817D0012584F83C50022084F87E
:101A50003D002068826822F0770222F47F42826093
:101A60000868502830D00DDC20284DD005DC98B314
:101A700010283BD148E0022070BD302844D04028D7
:101A800034D139E0602828D0702806D0B0F5805FC6
:101A90002CD0B0F5005F29D10AE0CB68D1E9012153
:101AA000206800F047FB2068816841F0770109E079
:101AB000CB68D1E90121206800F03CFB20688168F7
:101AC00041F48041816011E0CA684968206800F0F3
:101AD00043FB5021206807E016E0CA684968206887
:101AE00000F04BFB6021206800F02EFB84F83D5095
:101AF000002084F83C0070BDCA684968206800F086
:101B00002BFB40212068EFE7226801461046EBE7F7
:101B1000704770B50446006801694FF00005C9437D
:101B2000890715D4C168C943890711D4E91E016129
:101B300001202077206880698007204602D0FFF7C7
:101B4000E7FF04E000F098F8204600F096F82577CB
:101B500020680169C943490717D4C168C9434907C7
:101B600013D46FF00401016102202077206880699E
:101B700010F4407F204602D0FFF7CAFF04E000F0D7
:101B80007BF8204600F079F8257720680169C94381
:101B9000090716D4C168C943090712D46FF00801B8
:101BA0000161042020772068C0698007204602D0A8
:101BB000FFF7AEFF04E000F05FF8204600F05DF8AC
:101BC000257720680169C943C90617D4C168C9438C
:101BD000C90613D46FF01001016108202077206836
:101BE000C06910F4407F204602D0FFF791FF04E067
:101BF00000F042F8204600F040F82577206801699F
:101C0000C943C90708D1C168C943C90704D1891E9E
:101C10000161204600F032F820680169C9430906D5
:101C200009D4C168C943090605D46FF08001016178
:101C30002046FFF797FE20680169C943490609D489
:101C4000C168C943490605D46FF0400101612046CF
:101C500000F028F820680169C94389060BD4C168DF
:101C6000C943890607D46FF0200101612046BDE811
:101C70007040FFF778BE70BD704770470068B0F1E4
:101C8000804F0BD10648012101604168C1EB011171
:101C90008900816000214160FEF7A8BC7047000008
:101CA000180000207047FEE701684A69D2435205D8
:101CB0000FD46FF480624A61002140F8301F202267
:101CC00042738173026942F00402026101730120D0
:101CD00070470020704700002DE9F8430446006873
:101CE0000D46DDE9089701689846164641F4807173
:101CF00001604B4600224FF001112046009700F092
:101D00005BF8E0B9216805F0FE0008613B464A46F1
:101D10001549204600F084F888B920684169806937
:101D200000903A464946204600F0C5F850B1206C74
:101D3000042804D12068016841F400710160012089
:101D4000BDE8F883F5B2B8F1010F09D02168300A77
:101D500008613A464946204600F0ADF80028E6D131
:101D6000206805610020EBE70200010070B516460F
:101D70000D4604460DE02046FFF796FF08B101200E
:101D800070BD681C05D0FFF75BF8801BA84207D820
:101D900035B120684069C0434007ECD4002070BDD5
:101DA000002044F8300F20216173A073216941F0B5
:101DB000200121612073E2E72DE9F0471E4690469D
:101DC0000D460446C1F30747DDF8209008E0701C7B
:101DD00006D0FFF735F8A0EB0900B0420FD876B176
:101DE0002068012F18D0806925EA00000004000C4B
:101DF00014D000214145EAD00020BDE8F087002042
:101E000044F8300F20216173A073216941F0200153
:101E1000216120730120F0E74069E5E70121E9E74E
:101E20002DE9F0479A4691460E46044600254FF0AC
:101E30002008C1F3074725E020684069C0434005FA
:101E400014D42068016841F40071016021686FF4C6
:101E500080604861256384F83D8084F83E50206CA2
:101E600040F00400206484F83C501FE0B9F1FF3FCB
:101E700008D0FEF7E5FFA0EB0A0149450CD8B9F1FF
:101E8000000F09D02068012F13D0806926EA0000D6
:101E90000004000C0BD0CFE744F8305F84F80D80CD
:101EA000A573206940F02000206125730120BDE862
:101EB000F0874069EAE770B516460D4604460DE026
:101EC0002046FFF7F1FE08B1012070BD681C05D067
:101ED000FEF7B6FF801BA84207D835B120684069DD
:101EE000C0430006ECD4002070BD002044F8300F41
:101EF00020216173A073216941F0200121612073C9
:101F0000E2E700003EB500250D48009501950295D9
:101F10000A498560016005730575012445604FF429
:101F200060210461C161FEF79BFC0094694604488E
:101F3000CDE90145FEF79EFB3EBD000000240140B7
:101F40004402002000B585B0002003901A48816942
:101F500041F010018161816901F0100104918169F2
:101F600041F020018161816901F0200104918169C2
:101F700041F004018161816901F0040104918169EA
:101F800041F0080181618069694600F00800049011
:101F90004FF4006000900948019002200290084828
:101FA000FEF75EFE002211462820FFF73FF92820A9
:101FB000FFF72EF905B000BD00100240000011101F
:101FC000000C014010B586B0002411480094019423
:101FD0000294039404944FF080410594016041F60B
:101FE0003F71C0E90114C910C0E903148461FFF70F
:101FF000DCFC4FF48050009069460548FFF71DFD5A
:10200000049404A902480594FFF7AEFC06B010BD85
:10201000C8020020FEE7704770477047FFF7A0B87E
:1020200030B593B028216846FEF793F814210AA82A
:10203000FEF78FF8002401200F94022504900095EC
:102040001020119405901094129407946846FFF79D
:10205000E5FA0F20CDE90A040C940D9400210AA89A
:102060000E94FFF7EFF90FA80F951194FFF774F98D
:1020700013B030BD0D48016841F0010101604168B5
:102080000B4A1140416001680A4A11400160016831
:1020900021F480210160416821F4FE0141604FF488
:1020A0001F0181600449C0030860704700100240AE
:1020B0000000FFF8FFFFF6FE08ED00E00148FFF723
:1020C00028BD0000C8020020F0B50268164B174C6E
:1020D000174D4FF08047984205D0B84203D0A04238
:1020E00001D0A84203D122F070064A6832439842D8
:1020F00005D0B84203D0A04201D0A84203D122F4B7
:102100004074CA6822434C6922F080022243026074
:102110008A68C2620A688262984201D109690163D1
:1021200001214161F0BD0000002C0140000400408D
:102130000008004010B5846842EA032224F47F447A
:102140000A432243826010BD826822F070020A4373
:1021500042F007018160704710B5036A046A24F0F9
:1021600001040462846924F0F00444EA021423F0B8
:102170000A020A438461026210BD10B5036A23F0AB
:10218000100303628369046A23F4704343EA023252
:1021900024F0A00343EA01118261016210BDFEE751
:1021A0000907090E002804DB00F1E02080F8001484
:1021B000704700F00F0000F1E02080F8141D704718
:1021C00002E008C8121F08C1002AFAD17047704700
:1021D000002001E001C1121F002AFBD1704700005E
:1021E00070B5404C206801287AD1002000F02AF90F
:1021F000002020603C49A06800F080F83A49A069BE
:102200000A3100F07BF8A0680A2803DA00213820A0
:1022100000F090F9A0680A385A2803D20021302033
:1022200000F088F9A0686438B0F5617F03D200211E
:10223000282000F07FF9A06842F22831A0F57A70DA
:10224000884203D20021202000F074F9A0682749B9
:10225000A0F51C501038884203D20021182000F04D
:1022600069F923480123D0E900121F4800F0EEF974
:102270001421002000F05EF91E4D1B480123D5E912
:1022800000120A3000F0E2F9A0690A2809DA1421E4
:10229000072000F04FF9D5E90012012316A000F045
:1022A000D5F9A0690A385A2809D214210F2000F064
:1022B00041F9D5E9001201230FA000F0C7F9A06988
:1022C000642809D11421172000F034F9D5E900124F
:1022D000012309A000F0BAF9BDE8704000F030B960
:1022E00070BD00001800002008030020905F01006E
:1022F00008000020000000202500000030B4041E6B
:1023000000DA604200220A2390FBF3F503FB150577
:1023100090FBF3F030358D54521C0028F4DC002C77
:1023200002DA2D208854521C0020885430BC084604
:1023300000F058B8FEF71CFFFFF772FEFFF702FE31
:10234000224821494FF48042016021494160002127
:102350008160C0E9031241618161C1610162FEF7E0
:1023600075FDFFF7CFFDFFF72DFE18485430FFF73E
:1023700053FB00F077F800F0E3F814483038FEF72C
:10238000CBFB124864213038FEF72EFB0F48303863
:10239000FEF7EFF90F4CE0600C483038FEF71CFCFC
:1023A000E068A0F67C00FDF7FCFF0B4A0B4BFDF745
:1023B00089FF00220A4BFDF77FFFFEF703F8A061BB
:1023C000FFF70EFFFCE700000054004074020020FD
:1023D000A0860100180000205C8FC2F5285C114027
:1023E0000000F03F70B505460024FDF7BDFE401E1D
:1023F00005E0295D2A5C2A552954401E641C84424C
:10240000F7DB70BD70B5802813D2202911D20B4B99
:10241000012401F007051E79AC40094BC90800EB07
:10242000C1100EB132B101E0012A03D0195CA14301
:10243000195470BD195C2143FAE700001000002018
:102440004400002010B5064A00214FF4007328B163
:10245000FF245454491C9942F9D310BD0024F8E7D5
:102460004400002010B56420FEF7D0FBAE2000F041
:10247000DBF8202000F0D8F8102000F0D5F8B020CC
:1024800000F0D2F8C02000F0CFF8002000F0CCF827
:10249000102000F0C9F8402000F0C6F8812000F0BC
:1024A000C3F8FF2000F0C0F8A02000F0BDF8A6207F
:1024B00000F0BAF8A82000F0B7F81F2000F0B4F838
:1024C000A42000F0B1F8D32000F0AEF8002000F016
:1024D000ABF8D52000F0A8F8F02000F0A5F8D9203E
:1024E00000F0A2F8222000F09FF8DA2000F09CF81B
:1024F000022000F099F8DB2000F096F8202000F090
:1025000093F88D2000F090F8142000F08DF8AF20A3
:1025100000F08AF80020FFF795FF00F011F804485A
:1025200000210180418001214171084610BD000059
:1025300010000020014A10805180704710000020D8
:10254000FEB5002464250F4F802600BF04F1B000C3
:10255000C0B200F069F8002000F066F8102000F02A
:1025600063F807EBC410CDE900060123402278216F
:1025700002950548FEF724FD641CE4B2082CE5D35F
:10258000FEBD000044000020740200202DE9FF4F32
:10259000834624489246CEB202883244802A06D22C
:1025A00081464088C1F307273844202803D3002000
:1025B00004B0BDE8F08F002528E000BFABF120009B
:1025C00000FB075000243AF810801CE008FA04F0E1
:1025D000000409D599F8021099F800002944204414
:1025E000C9B2C0B2039A0BE00398C0B15FF0000219
:1025F00099F8021099F8000029442044C9B2C0B2E9
:10260000FFF700FF641CA642E0D86D1CAF42D5D88E
:10261000B9F8001058463144A9F80010C8E7012263
:10262000E6E700001000002001B584B001210A2275
:1026300004A88DE807000B46002278210248FEF727
:10264000BFFC05B000BD000074020020F0B51D46BF
:102650000E46174604460AE02B463A463146FFF737
:1026600095FF2178884201D0C8B2F0BD641C207863
:102670000028F1D1C0B2F0BD000000000000000051
:10268000000000000000000000000000001000102A
:1026900000100010001000100000001000000000EA
:1026A00000280028002800000000000000000000B2
:1026B0000000000000240024007C00240048007C6E
:1026C0000048004800000000003800540050003866
:1026D0000014005400540038001000000020005482
:1026E00000580030002800540014000800000000CA
:1026F0000010002800280010003400480048003472
:102700000000000000100010001000000000000099
:102710000000000000000000000800100020002061
:1027200000200020002000200010000800200010E1
:102730000008000800080008000800080010002039
:102740000010003800100028000000000000000009
:10275000000000000000000000100010007C0010CD
:102760000010000000000000000000000000000059
:102770000000000000000010001000100000000029
:102780000000000000000038000000000000000011
:102790000000000000000000000000000000001029
:1027A00000000000000800080010001000100010D9
:1027B00000200020000000000038004400440054C5
:1027C00000440044004400380000000000100030C5
:1027D0000050001000100010001000100000000059
:1027E0000038004400440004000800100020007C71
:1027F0000000000000380044000400180004000439
:1028000000440038000000000008001800280028DC
:102810000048007C0008000800000000007C004028
:10282000004000780004000400440038000000006C
:102830000038004400400078004400440044003860
:1028400000000000007C00040008001000100020C0
:102850000020002000000000003800440044003840
:1028600000440044004400380000000000380044E8
:1028700000440044003C0004004400380000000014
:102880000000000000100000000000000000001028
:102890000000000000000000000000100000000028
:1028A000000000100010001000000000000C0030BC
:1028B00000400030000C000000000000000000009C
:1028C0000000007C0000007C000000000000000010
:1028D0000000000000600018000400180060000004
:1028E0000000000000380044000400080010001040
:1028F000000000100000000000380044004C0054AC
:10290000005C00400040003800000000001000287B
:10291000002800280028007C00440044000000003B
:1029200000780044004400780044004400440078EB
:10293000000000000038004400400040004000401B
:1029400000440038000000000070004800440044CB
:10295000004400440048007000000000007C00407B
:102960000040007C004000400040007C000000006F
:10297000007C0040004000780040004000400040E3
:10298000000000000038004400400040005C0044AB
:102990000044003800000000004400440044007C73
:1029A00000440044004400440000000000380010CF
:1029B000001000100010001000100038000000008F
:1029C0000004000400040004000400040044003873
:1029D0000000000000440048005000600050004823
:1029E000004800440000000000400040004000405B
:1029F000004000400040007C000000000044006CEB
:102A0000006C0054004400440044004400000000F6
:102A100000440064006400540054004C004C004426
:102A2000000000000038004400440044004400441A
:102A300000440038000000000078004400440044D6
:102A400000780040004000400000000000380044D2
:102A500000440044004400440054003800040000D6
:102A600000780044004400440078004800480044D6
:102A7000000000000038004400400030000800045E
:102A80000044003800000000007C0010001000101E
:102A9000001000100010001000000000004400446E
:102AA000004400440044004400440038000000009A
:102AB00000440044004400280028002800100010B2
:102AC0000000000000440044005400540054006C16
:102AD0000028002800000000004400280028001002
:102AE00000100028002800440000000000440044BA
:102AF0000028002800100010001000100000000046
:102B0000007C000400080010001000200040007C41
:102B1000000000000018001000100010001000104D
:102B200000100010001000180020002000100010FD
:102B30000010001000080008000000000030001025
:102B400000100010001000100010001000100030E5
:102B500000100028002800440000000000000000D1
:102B60000000000000000000000000000000000065
:102B700000000000000000FE002000100000000027
:102B80000000000000000000000000000000000045
:102B900000380044003C0044004C003400000000B9
:102BA00000400040005800640044004400640058A5
:102BB0000000000000000000003800440040004019
:102BC0000044003800000000000400040034004C01
:102BD00000440044004C00340000000000000000ED
:102BE00000380044007C0040004400380000000031
:102BF000000C0010007C00100010001000100010ED
:102C000000000000000000000034004C00440044BC
:102C1000004C00340004007800400040005800647C
:102C20000044004400440044000000000010000084
:102C300000700010001000100010001000000000D4
:102C400000100000007000100010001000100010B4
:102C5000001000E0004000400048005000600050BC
:102C60000048004400000000007000100010001038
:102C70000010001000100010000000000000000014
:102C80000078005400540054005400540000000028
:102C90000000000000580064004400440044004468
:102CA0000000000000000000003800440044004420
:102CB00000440038000000000000000000580064DC
:102CC0000044004400640058004000400000000040
:102CD0000034004C00440044004C00340004000464
:102CE0000000000000580064004000400040004028
:102CF0000000000000000000003800440030000820
:102D0000004400380000000000200020007800206F
:102D1000002000200020001800000000000000003B
:102D20000044004400440044004C00340000000013
:102D30000000000000440044002800280028001083
:102D40000000000000000000005400540054006C1B
:102D500000280028000000000000000000440028B7
:102D600000100010002800440000000000000000D7
:102D700000440044002800280010001000100060EB
:102D800000000000007C0008001000200040007CD3
:102D900000000000001800100010001000200020AB
:102DA000001000100010001800100010001000109B
:102DB0000010001000100010001000100030001073
:102DC0000010001000080008001000100010003073
:102DD0000000000000000074004C00000000000033
:102DE00000000000000000000000000000000000E3
:102DF00000000000000000000000000000000000D3
:102E000000000000000000000000000000000000C2
:102E10000000000000000000E003E003E003E00326
:102E2000E003E003E003E003C003C003C001C0010E
:102E3000C001C001C001000000000000E003E00389
:102E4000E003000000000000000000003C1E3C1EEB
:102E50003C1E3C1E3C1E3C1E3C1E000000000000B0
:102E60000000000000000000000000000000000062
:102E70000000000000000000000000000000000052
:102E8000CE01CE03DE039E039C039C07FF3FFF7F22
:102E90003807380F780F780F780EFFFFFFFFF01E0E
:102EA000F01CE01CE03CE03DE039000000000000C8
:102EB00000000000FC03FE0FEE1FE01EE01EE01EFF
:102EC000E01EE01FE00FE007F003FC01FE01FE0141
:102ED000FE01FE01FE01FE01FE3DFC3FF00FE001A0
:102EE000E001000000000000033E07F78FE78EE7D7
:102EF0009EE3BCE3B8E7F8E7F0F7E03FC001FF036B
:102F0000FF07F307F30FF31EF33CF338F3787FF07A
:102F10003FE000000000000000000000E007F80FA4
:102F2000780F781F781F781F780FF00FE00F801F41
:102F3000C37FC3FBE7F3F7F1F7F0FFF07FF03EF854
:102F40007F7CFF3FEF1F000000000000000000003A
:102F5000E003E003E003E003E003C003C00100007E
:102F60000000000000000000000000000000000061
:102F70000000000000000000000000000000000051
:102F8000000000003F007C00F001E001C003C0072A
:102F900080078007800F000F000F000F000F000F49
:102FA000000F800F80078007C007C003E001F00119
:102FB0007C003F000F000000007E001FC007C00320
:102FC000E001F001F000F000F800780078007800EF
:102FD000780078007800F800F000F000F001E001DF
:102FE000C003C007001F007E00780000E003C0039C
:102FF000C001CE39FF3F7F3F20037003F807780FF1
:103000003C1F380600000000000000000000000027
:1030100000000000000000000000000000000000B0
:10302000000000000000000000000000C001C0011E
:10303000C001C001C001C001C001FFFFFFFFC0010E
:10304000C001C001C001C001C001000000000000BB
:103050000000000000000000000000000000000070
:103060000000000000000000000000000000000060
:10307000000000000000E003E003E003E003E001E3
:10308000E001E001C001800300000000000000003A
:103090000000000000000000000000000000FE3FF3
:1030A000FE3F0000000000000000000000000000E3
:1030B0000000000000000000000000000000000010
:1030C0000000000000000000000000000000000000
:1030D0000000000000000000000000000000E0030D
:1030E000E003E003E0030000000000000000000037
:1030F0000F000F001E001E003C003C00780078000E
:10310000F000F000E001E001C003C0038007800789
:10311000000F000F001E001E003C003C00780078ED
:1031200000F00000F007F80F7C1F3E3E1E3C1F7CA5
:103130001F7C0F780F780F780F780F780F780F7843
:103140001F7C1F7C1E3C3E3E7C1FF80FF0070000DA
:103150000000000000000000F000F007F03FF03F2A
:10316000F001F001F001F001F001F001F001F001D7
:10317000F001F001F001F001F001F001F001FF3F7A
:10318000FF3F00000000000000000000E00FF83FDB
:103190007C3C3C003E003E003E003C003C007C008D
:1031A000F800F001E003C0078007000F001E003E9A
:1031B000003CFE3FFE3F0000000000000000000059
:1031C000F00FF81F7C1C3E003E003E003C003C001F
:1031D000F800F00FF80F7C003E001E001E001E00DD
:1031E0001E003E007C1CF81FE01F000000000000D5
:1031F000000000007800F800F800F801F803F80774
:10320000F807780F781E781E783C78787878FFFF7A
:10321000FFFF7800780078007800780078000000E0
:103220000000000000000000FC1FFC1FFC1F001E2F
:10323000001E001E001E001EE01FF81FFC007C0088
:103240003E003E001E003E003E003C007C1CF81F7D
:10325000E01F00000000000000000000FC01FE076D
:103260008E0F001F001E003E003C003CF83DFC3F5E
:103270003E7F1F7E0F3C0F3C0F3C0F3C0F3E1F1E3E
:103280003E1FFC0FF00300000000000000000000E3
:10329000FF3FFF3FFF3F0F001E001E003C003800B5
:1032A0007800F000F000E001E001C003C0038007F7
:1032B000800F800F000F001F001F000000000000A3
:1032C00000000000F807FC0F3E1F1E1E1E3E1E3EA3
:1032D0001E1E3C1FF80FF007F80FFC1E3E3E1F3C61
:1032E0001F7C0F7C0F7C1F3C3E3FFC1FF007000043
:1032F0000000000000000000F007F80F7C1E3E3CBC
:103300001E3C1F7C1F7C1F7C1F7C1F3C3F3EFF1F01
:10331000EF071F001E001E003E003C00F838F03F83
:10332000E01F00000000000000000000000000009E
:103330000000000000000000E003E003E003E00301
:103340000000000000000000000000000000E0039A
:10335000E003E003E00300000000000000000000C4
:10336000000000000000000000000000E003E00397
:10337000E003E00300000000000000000000000087
:103380000000E003E003E003E003E001E001E0010E
:10339000C0038003000000000000000000000000E7
:1033A00003000F003F00FC00F003C00F003F00FED1
:1033B000003FC00FF003FC003F000F0003000000BF
:1033C00000000000000000000000000000000000FD
:1033D000000000000000000000000000FFFFFFFFF1
:1033E000000000000000FFFFFFFF000000000000E1
:1033F00000000000000000000000000000000000CD
:10340000000000000000000000E000F8007E801FC7
:10341000E007F8017E001F007E00F801E007801F32
:10342000007E00F800E00000000000000000000046
:10343000F01FFC3F3E381F381F381E001E003C00A6
:103440007800F000E001C003C003C007C00700001F
:1034500000000000C007C007C00700000000000017
:1034600000000000F803FE0F1E1F0F3E7F3CFF7898
:10347000EF79C773C7F38FF38FF38FF39FF39FF346
:10348000FF73FF7BF779003C1C1FFC0FF803000063
:103490000000000000000000000000000000E00349
:1034A000E003F007F007F007780F780F7C0E3C1E62
:1034B0003C1E3E3CFE3FFF3F1F780F780FF007F0A9
:1034C00007F0000000000000000000000000000005
:1034D0000000F83FFC3F3E3C1E3C1E3C1E3C3E3C78
:1034E0007C3CF03FF83F7E3C1F3C1F3C0F3C0F3CB8
:1034F0001F3CFE3FF83F00000000000000000000FD
:10350000000000000000FF01FF07871F003E003C95
:10351000007C00780078007800780078007C007CDF
:10352000003E003F831FFF07FF0100000000000076
:1035300000000000000000000000F07FFC7F7E78AB
:103540001F781F780F780F780F780F780F780F7823
:103550000F780F781F781E787E78F87FE07F000064
:103560000000000000000000000000000000FF3F1D
:10357000FF3F003E003E003E003E003E003EFE3F5C
:10358000FE3F003E003E003E003E003E003EFF3F4C
:10359000FF3F0000000000000000000000000000ED
:1035A0000000FF1FFF1F001E001E001E001E001E49
:1035B000001EFF1FFF1F001E001E001E001E001E1B
:1035C000001E001E001E00000000000000000000A1
:1035D000000000000000FE03FF0F871F003E007C7C
:1035E000007C007800F800F87FF87FF80F780F7CF7
:1035F0000F7C0F3E8F1FFF0FFE0300000000000036
:10360000000000000000000000001F7C1F7C1F7CE9
:103610001F7C1F7C1F7C1F7C1F7CFF7FFF7F1F7C0C
:103620001F7C1F7C1F7C1F7C1F7C1F7C1F7C00005D
:103630000000000000000000000000000000FF3F4C
:10364000FF3FE003E003E003E003E003E003E00307
:10365000E003E003E003E003E003E003E003FF3FF7
:10366000FF3F00000000000000000000000000001C
:103670000000FC1FFC1F7C007C007C007C007C00A8
:103680007C007C007C007C007C007C007800780062
:10369000F838F03FC03F00000000000000000000CC
:1036A0000000000000001F3C1E3C3C3C783CF03C0D
:1036B000E03DE03FC03F803FC03FE03FF03DF03C99
:1036C000783C7C3C3E3C1F3C0F3C0000000000006E
:1036D00000000000000000000000003E003E003E30
:1036E000003E003E003E003E003E003E003E003EEA
:1036F000003E003E003E003E003EFF3FFF3F000018
:1037000000000000000000000000000000001FF8A2
:103710001FFC1FFC3FFE3FFE3FFE7FFF77FF77FF52
:10372000F7F7E7F7E7F3E7F3C7F307F007F007F07A
:1037300007F0000000000000000000000000000092
:1037400000000F7C0F7C0F7E0F7F0F7F8F7F8F7F9E
:10375000CF7FEF7BEF79FF79FF78FF787F783F7835
:103760003F781F781F780000000000000000000074
:10377000000000000000F007FC1F3E3E1F7C0F7899
:103780000F780FF80FF80FF80FF80FF80FF80F7801
:103790000F781F7C3E3EFC1FF00700000000000079
:1037A00000000000000000000000FC3FFF3F1F3E43
:1037B0000F3E0F3E0F3E0F3E1F3E3F3EFC3FF03F91
:1037C000003E003E003E003E003E003E003E000047
:1037D0000000000000000000000000000000F007F2
:1037E000FC1F3E3E1F7C0F780F780FF80FF80FF884
:1037F0000FF80FF80FF80F780F781F7C3E3EFC1F74
:10380000F8077C003F000F000300000000000000EC
:103810000000F03FFC3F7E3C3E3C1E3C1E3C3E3CDC
:103820003C3CFC3CF03FE03FF03DF83C7C3C3E3C07
:103830001E3C1F3C0F3C0000000000000000000088
:10384000000000000000FC07FE1F0E3E003C003C94
:10385000003C003EC01FF80FFE037F001F000F005A
:103860000F001F203E3CFC3FF01F00000000000046
:1038700000000000000000000000FFFFFFFFE00369
:10388000E003E003E003E003E003E003E003E00320
:10389000E003E003E003E003E003E003E0030000F3
:1038A00000000000000000000000000000000F7C8D
:1038B0000F7C0F7C0F7C0F7C0F7C0F7C0F7C0F7CB0
:1038C0000F7C0F7C0F7C0F7C1E3C1E3C3E3EFC1F81
:1038D000F0070000000000000000000000000000F1
:1038E000000007F007F007F80F780F7C1E3C1E3C25
:1038F0001E3E3C1E3C1F781F780FF80FF007F007A4
:10390000F007E003E00300000000000000000000FA
:1039100000000000000003E003F003F007F0E7F30D
:10392000E7F3E7F3E773F77BF77FFF7F7F7F7F7F27
:103930007E7F7E3F3E3E3E3E3E3E00000000000059
:103940000000000000000000000007F80F7C1E3E91
:103950003E3E3C1FF80FF007E007E003E003F007EE
:10396000F80F7C0F7C1E3E3C1F780F780FF0000094
:10397000000000000000000000000000000007F848
:1039800007780F7C1E3C1E3E3C1F780FF80FF00797
:10399000E003E003E003E003E003E003E003E0030F
:1039A000E003000000000000000000000000000034
:1039B0000000FF7FFF7F0F001F003E007C00F8002B
:1039C000F000E001E003C007800F000F001E003E82
:1039D000007CFF7FFF7F000000000000000000006F
:1039E000FF07800780078007800780078007800720
:1039F000800780078007800780078007800780078F
:103A00008007800780078007800780078007FF07FF
:103A1000FF07000000780078003C003C001E001EFC
:103A2000000F000F80078007C003C003E001E00122
:103A3000F000F000780078003C003C001E001E0002
:103A40000F000F0007000000F07FF000F000F00012
:103A5000F000F000F000F000F000F000F000F000E6
:103A6000F000F000F000F000F000F000F000F000D6
:103A7000F000F000F000F07FF07F0000C000C00117
:103A8000C001E003E003F007F0077807780F380F74
:103A90003C1E3C1E1E3C1E3C0F380F780778000071
:103AA0000000000000000000000000000000000016
:103AB0000000000000000000000000000000000006
:103AC00000000000000000000000000000000000F6
:103AD00000000000000000000000FFFFFFFF0000EA
:103AE00000000000F00000000000000000000000E6
:103AF00000000000000000000000000000000000C6
:103B000000000000000000000000000000000000B5
:103B100000000000000000000000000000000000A5
:103B200000000000F80FFC3F7C3C3E003E003E00E1
:103B3000FE07FE1F3E3E3E7C3E783E7C7E7CFF3F85
:103B4000CF1F00000000000000000000003C003C0F
:103B5000003C003C003C003CF83DFE3F3E3F1F3E29
:103B60000F3C0F3C0F3C0F3C0F3C0F3C1F3C1E3CDE
:103B70003E3FFC3FF03B0000000000000000000062
:103B8000000000000000000000000000FE03FF0F26
:103B9000871F003E003E003C007C007C007C003C17
:103BA000003E003E871FFF0FFE03000000000000E4
:103BB000000000001F001F001F001F001F001F004B
:103BC000FF07FF1F3F3E1F3C1F7C1F7C1F7C1F7891
:103BD0001F781F7C1F7C3F3C7F3EFF1FDF0F0000D4
:103BE00000000000000000000000000000000000D5
:103BF00000000000F803FC0F3E1F1E3E1F3C1F7C10
:103C0000FF7FFF7F007C007C003C003E071FFF0F12
:103C1000FE0300000000000000000000FF01E103BF
:103C2000C003C007C007C007FF7FFF7FC007C007F2
:103C3000C007C007C007C007C007C007C007C0074C
:103C4000C007C007C007000000000000000000001F
:103C5000000000000000000000000000EF07FF1F50
:103C60007F3E1F3C1F7C1F7C1F781F781F781F7CA6
:103C70001F7C3F3C7F3EFF1FDF0F1E001E001E000B
:103C80007C38F83F003C003C003C003C003C003CE1
:103C9000FC3DFE3F9E3F1F3F1F3E1F3C1F3C1F3C05
:103CA0001F3C1F3C1F3C1F3C1F3C1F3C1F3C000097
:103CB0000000000000000000F001F0010000000022
:103CC00000000000E07FE07FE001E001E001E001B2
:103CD000E001E001E001E001E001E001E001E001DC
:103CE000E00100000000000000000000F800F80003
:103CF0000000000000000000F83FF83FF800F80066
:103D0000F800F800F800F800F800F800F800F800F3
:103D1000F800F800F800F800F800F000F071E07F1B
:103D2000003C003C003C003C003C003C1F3C3E3C56
:103D30007C3CF83CF03DE03DC03FC03FE03FF03D03
:103D4000F83C7C3C3E3C1F3C1F3C00000000000057
:103D500000000000F07FF001F001F001F001F0013F
:103D6000F001F001F001F001F001F001F001F001CB
:103D7000F001F001F001F001F001F001F0010000AC
:103D80000000000000000000000000000000000033
:103D9000000000009EF7FFFFFFFFFFFFE7FBE7F9D2
:103DA000C7F1C7F1C7F1C7F1C7F1C7F1C7F1C7F153
:103DB000C7F100000000000000000000000000004B
:103DC0000000000000000000FC3DFE3F9E3F1F3F42
:103DD0001F3E1F3C1F3C1F3C1F3C1F3C1F3C1F3C09
:103DE0001F3C1F3C1F3C00000000000000000000C2
:103DF000000000000000000000000000F007FC1FB1
:103E00003E3E1F3C1F7C0F780F780F780F780F789D
:103E10001F7C1F3C3E3EFC1FF0070000000000001E
:103E20000000000000000000000000000000000092
:103E3000F83DFE3F3E3F1F3E0F3C0F3C0F3C0F3C0A
:103E40000F3C0F3C1F3C1E3E3E3FFC3FF83F003CFA
:103E5000003C003C003C003C000000000000000072
:103E600000000000EE07FE1F7E3E1E3C1E7C1E78FA
:103E70001E781E781E781E781E7C3E7C7E3EFE1FBD
:103E8000DE0F1E001E001E001E001E0000000000AF
:103E900000000000000000007F1FFF1FE71FC71F7A
:103EA000871F001F001F001F001F001F001F001F93
:103EB000001F001F001F00000000000000000000A5
:103EC000000000000000000000000000FC07FE1FD2
:103ED0000E1E003E003E003FE01FFC07FE003E00BD
:103EE0001E001E003E3CFC3FF01F000000000000D2
:103EF000000000000000000000008007800780072D
:103F0000FF7FFF7F8007800780078007800780078B
:103F10008007800780078007C007FF03FF010000BC
:103F20000000000000000000000000000000000091
:103F3000000000001E3C1E3C1E3C1E3C1E3C1E3C65
:103F40001E3C1E3C1E3C1E3C3E3C7E3CFE3EFE1F7C
:103F5000DE0F000000000000000000000000000074
:103F6000000000000000000007F00F780F781E3CF2
:103F70001E3C1E3E3C1E3C1E780F780FF00FF007D3
:103F8000F007E003E0030000000000000000000074
:103F900000000000000000000000000003F0E3F15A
:103FA000E3F3E7F3F7F3F7F3F77F777F7F7F7F7F25
:103FB0007F7F3E3E3E3E3E3E3E3E00000000000013
:103FC00000000000000000000000000000000000F1
:103FD0000F7C1E3E3C3E3C1FF80FF007F007E0034D
:103FE000F007F807F80F7C1E3E3E1F3C1F780000CC
:103FF00000000000000000000000000000000000C1
:104000000000000007F80F780F7C1E3C1E3C3C1E91
:104010003C1E3C1F780FF80FF007F007E003E003A9
:10402000C003C003C0038007800F007F00000000B2
:104030000000000000000000FF3FFF3F1F003E00A7
:104040007C00F800F001E003C007800F001F001E95
:10405000003CFF7FFF7F0000000000000000000028
:10406000FE01E003C003C003C003C003E001E001A0
:10407000E001C001C003803F803FC003C001E001F8
:10408000E001E001C003C003C003C003E003FE0180
:104090007E000000C001C001C001C001C001C0011C
:1040A000C001C001C001C001C001C001C001C00108
:1040B000C001C001C001C001C001C001C001C001F8
:1040C000C001C001C0010000C03FE003E001E00109
:1040D000E001E001C001C003C003C001E001FE0037
:1040E000FE00E001C001C003C003C001E001E00127
:1040F000E001E001E003C03F003F000000000000DD
:1041000000000000000000000000000000000000AF
:104110000000073FC77FE773FFF17EF0000000005B
:10412000000000000000000000000000000000008F
:104130000000000000000000010203040607080957
:104140000000000001020304684100080000002094
:1041500044000000C0210008AC41000844000020D9
:10416000DC060000D0210008070A000078260008BD
:10417000101A0000E42D00080000000000000000FC
:10418000010000000000000000000000000000002E
:10419000000000000000000000000000010000001E
:0C41A00010000000000000000024F400EB
:04000005080000ED02
:00000001FF
